:020000040800F2
:1000000048BF002081310008893100088B31000889
:100010008D3100088F310008913100080000000088
:100020000000000000000000000000009331000804
:10003000953100080000000077690108952B000841
:100040009B3100089B3100089B3100089B31000860
:100050009B3100089B3100089B3100089B31000850
:100060009B3100089B3100089B3100089B31000840
:100070009B3100089B310008A90D00088F0D000876
:100080009B3100089B3100089B3100089B31000820
:100090009B3100089B3100089B3100089B31000810
:1000A0009B3100089B3100089B3100089B31000800
:1000B0009B3100089B310008C70800089B310008ED
:1000C0009B3100089B3100089B3100089B310008E0
:1000D0009B310008952D00089B3100089B310008DA
:1000E0009B3100089B3100089B310008DFF80CD0E1
:1000F00016F0E8FB004800474701000848BF002011
:1001000010B54FF4A06011F017FA02F04FFD02F0A5
:1001100079FC00F093F802F0DDFB02F001FA00F048
:10012000A5FB00BF00F0EBF90028FBD10FF026F98A
:1001300038490122086838A10DF030FB4FF4E13056
:1001400002F0D9FD10BD8AB00024FFF7D9FF09A83D
:1001500004F0ACFC00BF00BF00BF02F0FBFF044690
:1001600000BF00BF2D480078401C2C49087000BF1C
:1001700000BF204602F0F2FF00BF00BF00BF09A889
:10018000032100220592CDE90621089010464FF484
:1001900000713322224BCDE90132CDE90310032057
:1001A0000023204A20A10090224809F0FBF900BF5B
:1001B00000BF00BF02F0CEFF044600BF00BF1748DB
:1001C0000078401E1549087008460078A0B91A4802
:1001D0000088002809DD00BF00BF204602F0BEFFF6
:1001E00000BF00BF05F079FA0DE000BF00BF204658
:1001F00002F0B4FF00BF06E000BF00BF204602F0DF
:10020000ADFF00BF00BF00BF09A804F01EFF00BF84
:10021000FEE7000014030020303A000068010020CF
:10022000B43F0020B9C30008737461727420746114
:10023000736B0000F03E00202C01002008B5012166
:1002400004200FF07DFE4FF48070ADF80000102008
:100250008DF8030003208DF80200694601480FF075
:10026000B3FB08BD0008014010B50446204600F06D
:100270008DFA10BD10B5382000F0E5FA10BD10B5AC
:10028000002000F0E0FA10BD08B5012104200FF0B5
:1002900057FE1C20ADF8000010208DF8030003204D
:1002A0008DF802006946F6480FF08EFB1C21F448D9
:1002B0000FF037FC00F091FA0120F249086008BD08
:1002C00010B50120EF490860FF20FFF7CDFF10BDFA
:1002D00010B5002400BFFF20FFF7C6FFFF2801D1A3
:1002E000002010BD641C6FF07F408442F3D30120D6
:1002F000F7E710B50020E3490860FFF7E9FF08B908
:10030000002010BDFFF7DCFF0120FAE770B50546BD
:100310004FF6FF7401E0601E84B2FF20FFF7A4FFD8
:10032000A84201D0002CF6D10CB9FF2070BD0020EE
:10033000FCE770B504460D46FE20FFF7E7FF08B165
:10034000012070BD04E0FF2000F020FA2070641C42
:100350002800A5F101018DB2F5D1FF20FFF784FF40
:10036000FF20FFF781FF0020EBE770B506460D4642
:10037000FFF7AEFF08B1012070BD2846FFF774FFFC
:10038000FD2D19D0002404E0305D00F0FFF9601C61
:1003900084B2B4F5007FF7DBFF20FFF765FFFF2095
:1003A000FFF762FFFF20FFF75FFF044604F01F0026
:1003B000052801D00220DFE70020DDE72DE9F0412C
:1003C00005460C4617464FF00008FFF779FFFFF788
:1003D00090FF10B1FF20BDE8F08145F04000FFF72D
:1003E00043FF200EFFF740FFC4F30740FFF73CFF39
:1003F000C4F30720FFF738FFE0B2FFF735FF3846B8
:10040000FFF732FF0C2D02D1FF20FFF72DFF4FF039
:100410001F0800BFFF20FFF727FF064606F08000F9
:1004200030B15FEA0800A8F1010101F0FF08F1D145
:100430003046D0E770B50546012200210A20FFF7BB
:10044000BDFF044624B910212846FFF772FF044679
:10045000FFF736FF0CB1012070BD0020FCE770B53E
:100460000546012200210920FFF7A8FF044624B910
:1004700010212846FFF75DFF0446FFF721FF0CB16E
:10048000012070BD0020FCE77FB56846FFF7E7FF5D
:1004900010B1002004B070BD9DF8000000F0C00055
:1004A000402809D19DF809009DF8081000EB0120B3
:1004B000401C84B2A50220E09DF8050000F00F006A
:1004C0009DF80A1000EBD1109DF8091001F003010E
:1004D00000EB4100861C9DF8080080119DF8071074
:1004E00000EB81009DF8061001F0030100EB812074
:1004F000441CA6F1090004FA00F52846CAE7F8B53D
:10050000FFF7C2FEFFF7B6FE002504E0FF20FFF76D
:10051000ABFE681C85B20A2DF8DB142600BF9522BD
:1005200000210846FFF74AFF0446012C04D03000A2
:10053000A6F101018EB2F2D1002053490870012CBE
:100540004AD187224FF4D5710820FFF737FF0128E1
:1005500047D1002506E0FF20FFF786FE0DF80500D5
:10056000681C85B2042DF6DB9DF80200012879D1C4
:100570009DF80300AA2875D14FF6FE7600BF012230
:1005800000213720FFF71AFF012291072920FFF7EA
:1005900015FF044624B13000A6F101018EB2EED160
:1005A000002E5FD0012200213A20FFF707FF00282C
:1005B00058D1002506E0FF20FFF756FE0DF8050094
:1005C000681C85B2042DF6DB9DF8000000F04000A9
:1005D00018B106202C49087044E004202A4908700C
:1005E00040E0012200213720FFF7E8FE0122002130
:1005F0002920FFF7E3FE0446012C17DC02202249E4
:1006000008704FF6FE7600BF012200213720FFF769
:10061000D5FE012200212920FFF7D0FE0446BCB1FF
:100620003000A6F101018EB2EED111E00120164991
:1006300008704FF6FE7600BF012200211046FFF73A
:10064000BDFE044624B13000A6F101018EB2F3D103
:100650002EB1012251021020FFF7B0FE10B1002090
:1006600009490870FFF72CFEFFF709FE06480078DD
:1006700008B10020F8BD0CB12046FBE7AA20F9E73D
:10068000000801408C012142000000202DE9F041CA
:1006900006460F4615463C480078062800D07F02E3
:1006A000012D0CD1012239461120FFF787FE0446A7
:1006B000FCB969023046FFF73CFE044619E001220E
:1006C00039461220FFF77AFE044600BF4FF400714E
:1006D0003046FFF72EFE044606F50076681EC0B2CF
:1006E000050001D0002CF1D0012200210C20FFF7E1
:1006F00065FEFFF7E5FD2046BDE8F0812DE9F041FC
:1007000006460F46154620480078062800D07F028E
:10071000012D0CD1012239461820FFF74FFE044667
:100720006CBBFE213046FFF720FE044627E016484A
:100730000078012809D0012200213720FFF73EFE72
:10074000012229461720FFF739FE012239461920D8
:10075000FFF734FE044694B900BFFC213046FFF792
:1007600004FE044606F50076681EC0B2050001D0FE
:10077000002CF2D0FD210020FFF7F7FD0446FFF723
:100780009FFD2046BDE8F0810000002070B50546C1
:10079000002405E0601CC4B2C82C01DD002070BD3F
:1007A00002212F480FF07FFD0028F3D029462C4866
:1007B0000FF026FD002405E0601CC4B2C82C01DD4A
:1007C0000020ECE7012126480FF06DFD0028F3D052
:1007D00023480FF017FDC0B2E1E708B5012141F24F
:1007E00004000FF0ADFBE020ADF8000018208DF8FC
:1007F000030003208DF8020069461A480FF0E4F860
:10080000E02118480FF08DF90020174908804FF4B7
:1008100082704880002088800220C88001200881E2
:1008200040024881382088810020C8810720088242
:100830000B480FF00FFC012109480FF0B0FCFF201E
:10084000FFF7A4FF08BD10B50446074884810146A0
:1008500003480FF0FFFB012101480FF0A0FC10BD81
:1008600000300140000801405C0300201FB5012159
:1008700004200FF072FB0920ADF8080041F61F407C
:10088000ADF804000020ADF80600ADF80A0001A99B
:100890001C480FF013FE012211461A4810F085F98A
:1008A0000121184810F066F91E208DF80000032081
:1008B0008DF801008DF8020001208DF803006846D4
:1008C00010F03FFE1FBD10B501210E4810F01BFCBB
:1008D00040B101210B4810F027FC0B480068401C78
:1008E0000949086010BD10B50121064810F042F911
:1008F00010BD10B50021034810F03CF910BD0248AE
:1009000000687047000800400400002000B585B072
:10091000012118200FF014FB4FF43040ADF8000017
:1009200003208DF8020018208DF803006946FE4868
:100930000FF04AF84020ADF8000003208DF80200C7
:1009400018208DF803006946F8480FF03DF80121A2
:1009500088030FF002FBF6480FF056FB0020ADF8BD
:100960000600ADF808004FF40070ADF80A0045F23B
:10097000226003900020ADF810004FF40070ADF835
:10098000040001A9EA480FF083FB0121E8480FF0B9
:1009900012FC05B000BD00B585B0012118200FF094
:1009A000CFFA4FF44050ADF8000003208DF802005C
:1009B00018208DF803006946DB480FF005F84FF466
:1009C0000040ADF8000003208DF8020004208DF8EF
:1009D00003006946D4480EF0F7FF4020ADF8000050
:1009E00003208DF8020018208DF803006946CF48D7
:1009F0000EF0EAFF012188030FF0AFFACC480FF0A8
:100A000003FB0020ADF80600ADF808004FF40070BD
:100A1000ADF80A0045F2226003900020ADF8100006
:100A20004FF44070ADF8040001A9C1480FF030FB4D
:100A30000121BF480FF0BFFB05B000BD38B505462A
:100A40000C46012108460FF06EFA0021B9480EF05D
:100A5000FEFE0021B6480FF0AEFBB6480EF02AFEAF
:100A6000B3480C30B44908600846456010208860DF
:100A70000846C46000200861802048614000886109
:100A80008000C8614FF44050486220200862002076
:100A90008862A8480EF0B0FE01220221A4480FF09F
:100AA000A6FB0F208DF8000000208DF801008DF8C6
:100AB000020001208DF80300684610F042FD01227B
:100AC00002219C480EF0CFFE012199480FF073FBE4
:100AD000012198480EF0BBFE38BD38B505460C46DE
:100AE000012108460FF01FFA0021924814380EF039
:100AF000AEFE00218E480FF05EFB8E4814380EF0DB
:100B0000D9FD8B480C308C490860084645600020B0
:100B100088600846C4600020086180204861400069
:100B200088618000C8614FF440504862202008620C
:100B3000002088627F4814380EF05EFE01221146C4
:100B40007B480FF054FB0E208DF8000000208DF83C
:100B500001008DF8020001208DF80300684610F0B6
:100B6000F0FC01220221734814380EF07CFE0121B2
:100B70006F480FF020FB01216E4814380EF067FE1D
:100B800038BD70B506460D4614466C4806606C4884
:100B900005606C48046001206B490870FFF7B6FEE1
:100BA00021463046FFF74AFF70BDF0B585B00746D5
:100BB0000D4614461E46614807606148056061485D
:100BC0000460012060490870012118200FF0B8F975
:100BD0004FF43040ADF8000003208DF802001820DB
:100BE0008DF80300694650480EF0EEFE4020ADF847
:100BF000000003208DF8020018208DF803006946DC
:100C00004A480EF0E1FE012188030FF0A6F948489A
:100C10000FF0FAF90020ADF80600ADF808004FF427
:100C20000070ADF80A0003960020ADF810004FF4F4
:100C30000070ADF8040001A93D480FF029FA012128
:100C40003B480FF0B8FA21463846FFF7F7FE05B0EB
:100C5000F0BD70B506460D46144638480660384863
:100C6000056038480460012037490870FFF793FE9B
:100C700021463046FFF731FF70BD2E485838806D51
:100C80004FF6FE7108402B49583988652D48006899
:100C9000C8652D480078012806D1294800684866B3
:100CA00002202949087007E0244800682149583982
:100CB00048660120244908701E485838806D40F06D
:100CC00001001C4958398865012020490870704787
:100CD00018485838406C4FF6FE710840154958398D
:100CE000486418480068886417480078012806D1CD
:100CF00013480068086502201349087007E00F4890
:100D000000680C495839086501200F4908700948E6
:100D10005838406C40F001000649583948640120B9
:100D20000A49087070470000000C014000100140A3
:100D3000003800405800024004060020080000204F
:100D40000C000020100000201400002015000020DE
:100D500010B50021F8480EF07AFD00220221F64875
:100D60000EF081FDF548007810BD10B50021F24865
:100D700014380EF06CFD00220221EF4814380EF0FA
:100D800072FDEE48007810BDED490860704710B55F
:100D90004FF400300EF095FD28B14FF400300EF006
:100DA000A4FDFFF76AFF10BD10B54FF400500EF020
:100DB00088FD28B14FF400500EF097FDFFF788FF33
:100DC00010BD2DE9F84F81460C4600200090824668
:100DD0004FF480600EF044FC064601224946D94893
:100DE00001F030F88246BAF1000F78D10120D649DF
:100DF00008706B4682023146D24801F0BFF8B34614
:100E00005E46DBF80800D149884265D106F10C0541
:100E10002889012802D0288903285AD1696806F157
:100E200014000F183868CA49884203D03868C94985
:100E3000884205D168681C3079680844E06102E0A6
:100E400068681430E061E06900EB0608D8F800003B
:100E5000C14988423AD12889208068896080E86841
:100E6000C4F816002869C000C4F81200A88AA0803F
:100E7000E88A6083D8F80400C4F80600E069083006
:100E8000E0612188B5A015F0A7FD6188B9A015F033
:100E9000A3FDD4F81610BDA015F09EFDD4F81210D5
:100EA000C0A015F099FDA188C3A015F095FD618B38
:100EB000C7A015F091FDD4F80610C9A015F08CFD5F
:100EC000E169CCA015F088FD0BE008E04FF0040AC2
:100ED00007E04FF0030A04E04FF0020A01E04FF090
:100EE000010A30460EF0B0FB5046BDE8F88F2DE900
:100EF000F84F81464FF0000AD04600F0B6FB0021C3
:100F0000012000F035FC00221146104600F086FC5E
:100F10000021012000F0C3FC3C2000F0ECFC232168
:100F2000084600F0D1FCB9494846FFF74AFFA8B986
:100F3000B648408B10280BD1B448D0F816000228D0
:100F400006D9B248D0F816004BF6E43188420AD3ED
:100F5000AFA015F041FD0120BDE8F88FB1A015F05C
:100F60003BFD0120F8E74FF40A700EF079FB0746CD
:100F70004FF420500EF074FB05464FF420500EF055
:100F80006FFB06460DB106B10FB94FF0FF080EF02A
:100F9000EBFA83465946A6A015F01EFDB8F1000FE6
:100FA00063D101224946384600F04CFF0446002C2C
:100FB00056D1624908704FF4A05231462846FFF7D7
:100FC000E0FD43E06B464FF420523146384600F0D6
:100FD000D5FF0446BDF80000B0F5205F00D114B184
:100FE0004FF0010835E00AF1010A00BF53480078CC
:100FF0000028FBD0954800780128F7D09448007865
:1010000010B901209249087000204C4908706B46C5
:101010004FF420522946384600F0B0FF0446BDF890
:101020000000B0F5205F00D114B14FF0010810E0CE
:101030000AF1010A00BF414800780028FBD083482C
:1010400000780128F7D000203C490870B8F1000F63
:10105000B8D000BF384600F046FFFFF779FE04E045
:101060004FF0FF087BA015F0B7FC28460EF0ECFA15
:1010700030460EF0E9FA38460EF0E6FA00F02FFBA3
:10108000404669E72DE9F14F8AB00026B2460020BC
:10109000099008900690049000F0E7FA00210120E2
:1010A00000F066FB00221146104600F0B7FB00215D
:1010B000012000F0F4FB3F2000F01DFC3221084627
:1010C00000F002FC4FF40A700EF0CAFA05904FF4DB
:1010D00000600EF0C5FA04464FF420600EF0C0FA2E
:1010E00002904FF420600EF0BBFA804634B10298B3
:1010F00020B1B8F1000F01D0059818B9FF200BB04E
:10110000BDE8F08F01220A99059800F09BFE074682
:101110008FB154A00A9915F05FFC05980EF094FA6F
:1011200020460EF091FA02980EF08EFA40460EF02C
:101130008BFA0120E3E7A1E05800024015000020EF
:1011400010000020DC0300204400002057415645D9
:10115000666163744C495354646174617761767855
:101160002D3E617564696F666F726D61743A2564B6
:101170000D0A0000776176782D3E6E6368616E6EB1
:10118000656C733A25640D0A00000000776176787B
:101190002D3E73616D706C65726174653A25640DE6
:1011A0000A000000776176782D3E6269747261747E
:1011B000653A25640D0A0000776176782D3E626CF1
:1011C0006F636B616C69676E3A25640D0A000000FD
:1011D000776176782D3E6270733A25640D0A0000BF
:1011E000776176782D3E6461746173697A653A251A
:1011F000640D0A00776176782D3E646174617374C2
:101200006172743A25640D0A00000000BA030020E0
:101210007761765F66696C655F65727220310D0A71
:10122000000000006E6F74207761760D0A000000E8
:101230006D656D6F72795F757365645F7761765FF9
:10124000706C61793A256425250D0A00160000208E
:10125000470000206F70656E2066696C65206572BE
:10126000720000006F70656E2066696C65202573E2
:10127000206572726F72200D0A00000003AB4FF4FC
:1012800000622146059800F079FE07468FB197A0CD
:101290000A9915F0A1FB05980EF0D6F920460EF03C
:1012A000D3F902980EF0D0F940460EF0CDF90120A6
:1012B00025E710F0AFF98346BBF1000F10D191A0E4
:1012C00015F08AFB05980EF0BFF920460EF0BCF928
:1012D00002980EF0B9F940460EF0B6F901200EE77B
:1012E0000EF042F9014601908DA015F075FB0794B0
:1012F000BDF80C000990DEE00999079810F09AF902
:101300008246BAF1000F02DA01200490D7E0079874
:10131000504407900998A0EB0A0009900998B0F58D
:10132000007F1DDA099800F003050DB1C5F1040531
:101330006019099A079914F060FF601907900998DD
:101340002844C0F5006209982044411903AB059870
:1013500000F014FE0746BDF80C10099808440990E7
:10136000069848B10020009009AA07A95846029B98
:1013700010F00AFA814608E00020434609AA07A9AE
:101380000090584610F000FA8146089828B94FF4AA
:10139000A06241460298FFF7F4FB0898401C0890B1
:1013A000B9F1000F2CD019F1020F12D0B9F1FF3FA3
:1013B00015D162A015F010FB079403AB4FF4006247
:1013C0002146059800F0DAFD0746BDF80C000990AB
:1013D00015E00120049060A015F0FEFA0FE0012056
:1013E0000490494664A015F0F7FA0998002805DD35
:1013F0000998401E09900798401C079000BF5AE0CA
:101400006249584610F05EF960488068B04241D0A9
:101410005E48866800684FF47A7190FBF1F00146EF
:1014200001905BA015F0D8FA314660A015F0D4FA0F
:101430005648C16863A015F0CFFA5448416867A0C8
:1014400015F0CAFA514801696AA015F0C5FA4F486B
:10145000C068102813D14D48406802280FD1022ED1
:101460000DDD4BF6E430864209DA48480069B0F5F4
:10147000906F04D145490869FFF786FC01E001201F
:101480000490022E06DB4148334641460269029829
:10149000FFF78BFB00BF5D4800780028FBD05C485D
:1014A00000780128F7D00020584908700698C0F14C
:1014B0000100C0B20690049800283FF41DAF00BFA1
:1014C000059800F010FDFFF743FC584610F0A8F80F
:1014D00005980EF0B9F820460EF0B6F802980EF016
:1014E000B3F840460EF0B0F8049808E672656164FF
:1014F0002066696C65202573206572726F72200DFD
:101500000A0000004552525F4D50335F416C6C6FD2
:101510006361746520427566666572730D0A00002A
:101520006D656D6F72795F757365645F6D70335F44
:10153000706C61793A256425250D0A004552525F89
:101540004D50335F494E444154415F554E444552DE
:10155000464C4F570D0A00004552525F4D50335FC5
:101560004D41494E444154415F554E444552464CCD
:101570004F570D0A00000000554E4B4E4F574E205E
:101580004552524F523A25640D0A000030060020A1
:10159000200D0A2042697472617465202020202089
:1015A000202025644B62707300000000200D0A208B
:1015B00053616D70726174652020202020202564A5
:1015C000487A0000200D0A204269747350657253F6
:1015D000616D706C6520256462000000200D0A209A
:1015E0006E4368616E732020202020202020256417
:1015F00000000000200D0A204F757470757453614F
:101600006D707320202025640D0A00001500002055
:10161000160000202DE9F04105460C46C4F30020D9
:1016200040EA4500C7B204F0FF084246394634207C
:1016300001F083FA064616B9B74820F8154030463F
:10164000BDE8F0810146B44830F81100704770B52C
:1016500004460D4604F0030405F00305E00040EAEB
:1016600045110420FFF7D6FF70BD10B500210846D4
:10167000FFF7D0FF04460CB1012010BD1B21012053
:10168000FFF7C8FF4FF4D8710220FFF7C3FF6C21AA
:101690000320FFF7BFFF00210620FFF7BBFF10214B
:1016A0002B20FFF7B7FF4FF480712F20FFF7B2FF19
:1016B0004FF480713020FFF7ADFF02213120FFF79A
:1016C000A9FF08210A20FFF7A5FF08210E20FFF738
:1016D000A1FF00210220FFF7BAFF0020CDE710B5DF
:1016E00000210846FFF796FF04460CB1012010BD0B
:1016F0000020FCE710B500210846FFF78BFF0446E9
:101700000CB1012010BD1B210120FFF783FF4FF416
:10171000D8710220FFF77EFF6C210320FFF77AFFCC
:1017200000210620FFF776FF10212B20FFF772FF24
:101730004FF480712F20FFF76DFF4FF48071302040
:10174000FFF768FF02213120FFF764FF08210A201C
:10175000FFF760FF08210E20FFF75CFF0F21232019
:10176000FFF758FF00210220FFF771FF0020C9E7B3
:1017700070B505460E460320FFF764FF044615B119
:1017800044F0030401E024F0030421460320FFF7A2
:1017900041FF0220FFF756FF044616B144F0030450
:1017A00001E024F0030421460220FFF733FF70BD5F
:1017B00070B5044604F007042F20FFF743FF0546E9
:1017C00025F0070545EA04012F20FFF723FF30200D
:1017D000FFF738FF054625F0070545EA04013020EC
:1017E000FFF718FF70BD70B5044604F007042F2002
:1017F000FFF728FF054625F0700545EA04112F2064
:10180000FFF708FF3020FFF71DFF054625F07005A4
:1018100045EA04113020FFF7FDFE70BD2DE9F041CF
:1018200005460E4617460220FFF70CFF044615B189
:1018300044F00C0401E024F00C0421460220FFF7E0
:10184000E9FE2C20FFF7FEFE044615B144F03304F8
:1018500001E024F0330421462C20FFF7DBFE1EB10B
:101860000520FFF7C0FF02E00020FFF7BCFF1FB11B
:101870000720FFF79DFF02E00020FFF799FFBDE87A
:10188000F08110B5044604F03F0421462D20FFF7F7
:10189000C1FE44F480712E20FFF7BCFE10BD70B570
:1018A00006460D4600240EB144F001041DB144F07B
:1018B000020444F0140421463220FFF7ABFE214617
:1018C0003320FFF7A7FE70BD70B504460D4604F047
:1018D0003F0405F03F050CB944F040040DB945F054
:1018E000400521463420FFF795FE45F480713520F0
:1018F000FFF790FE70BD10B5044604F03F040CB92C
:1019000044F0400421463620FFF784FE44F4807101
:101910003720FFF77FFE10BD4E0000200CB50020E1
:10192000019000906C48006840F480306A4908607B
:1019300000BF6948006800F4003000900198401C26
:101940000190009818B90198B0F5A06FF1D16248E4
:10195000006800F4003010B10120009001E0002088
:1019600000900098012843D15C48006840F01000C6
:101970005A4908600846006820F0030008600846DD
:10198000006840F0020008605348406852494860CF
:101990000846406848600846406840F480604860F7
:1019A0000846406820F47C1048600846406840F4CF
:1019B000E81048600846006840F08070086000BF8A
:1019C0004548006800F000700028F9D0424840689F
:1019D00020F00300404948600846406840F002009B
:1019E000486000BF3C48406800F00C000828F9D16E
:1019F0000CBD10B5FFF792FF10BD10B5364800685A
:101A000040F0010034490860084640683449084005
:101A10003149486008460068324908402E4908604C
:101A20000846006820F4802008600846406820F4DA
:101A3000FE0048604FF41F008860FFF7DAFF4FF0A8
:101A400000602949086010BD10B500210020002267
:101A5000214B5B6803F00C0121B1042906D0082951
:101A600028D107E0214B224C236027E01F4B204C5C
:101A7000236023E0184B5B6803F47010164B5B681F
:101A800003F48032022303EB904022B9194B434305
:101A9000174C23600DE0104B5B6803F4003323B157
:101AA000144B4343124C236003E0104B4343104C50
:101AB000236003E00D4B0E4C236000BF00BF064BBC
:101AC0005B68C3F303130C4CE15C094B1B68CB4010
:101AD000074C236010BD00000010024000200240AF
:101AE0000000FFF8FFFFF6FE08ED00E000127A00AC
:101AF000C400002000093D00C800002010B50024EB
:101B00000020CB4908609020FEF740FE0020FEF741
:101B10003DFE0020FEF73AFE0020FEF737FEFF20D4
:101B2000FEF734FE44EA0024FF20FEF72FFE0443B4
:101B30000120C049C1F88801204610BD08B5012127
:101B400004200EF0FDF91C20ADF8000010208DF8E7
:101B5000030003208DF802006946B7480DF034FFFA
:101B60001C21B5480DF0DDFFFEF737FE0820FEF71B
:101B70006AFEFFF7C3FFB149088008BD10B5002415
:101B80000020AB4908600520FEF700FEFF20FEF7AD
:101B9000FDFD04460120A749C1F88801204610BD7B
:101BA00010B504460020A24908600120FEF7EEFDB2
:101BB0002046FEF7EBFD01209E49C1F8880110BDCB
:101BC00010B500209A4908600620FEF7DFFD0120CD
:101BD0009849C1F8880110BD10B5002094490860EB
:101BE0000420FEF7D3FD01209249C1F8880110BD01
:101BF0002DE9F04106460C46174600208C49086046
:101C00000320FEF7C3FDC4F30740FEF7BFFDC4F396
:101C10000720FEF7BBFDE0B2FEF7B8FD002505E0AA
:101C2000FF20FEF7B3FD7055681C85B2BD42F7DB9F
:101C300001207F490860BDE8F08110B500BFFFF7C3
:101C40009DFF00F001000028F9D110BD2DE9F04101
:101C500006460C461746FFF7B3FF0020744908609C
:101C60000220FEF793FDC4F30740FEF78FFDC4F397
:101C70000720FEF78BFDE0B2FEF788FD002504E0AB
:101C8000705DFEF783FD681C85B2BD42F8DB012064
:101C900067490860FFF7D1FFBDE8F0812DE9F04109
:101CA00007460E461446F0B2C0F58075AC4200DC23
:101CB000254612E02A4631463846FFF7C7FFAC42B8
:101CC00000D10BE02F442E44601B84B2B4F5807F1A
:101CD00002DD4FF4807500E02546EBE700BFBDE86C
:101CE000F08110B504462403FFF76AFFFFF7A5FF54
:101CF00000204F4908602020FEF748FDC4F307404C
:101D0000FEF744FDC4F30720FEF740FDE0B2FEF706
:101D10003DFD01204749C1F88801FFF78EFF10BD46
:101D20002DE9F04781460F4616464FEA1738C7F3AC
:101D30000B0ACAF58054A64200DC344644E04FEA60
:101D400008314FF480523E48FFF752FF002508E06B
:101D50000AEB05003A49085CFF2800D003E0681C44
:101D600085B2A542F4DB00BFA54216DA4046FFF774
:101D7000B8FF002507E019F8050005EB0A01304A15
:101D80005054681C85B2A542F5DB4FEA08314FF488
:101D900080522B48FFF782FF04E02246394648462E
:101DA000FFF77CFFA64200D10FE008F101084FF0D9
:101DB000000AA1442744301B86B2B6F5805F02DDDD
:101DC0004FF4805400E03446B9E700BFBDE8F08727
:101DD00010B5FFF7F5FEFFF730FF0020144908604B
:101DE000C720FEF7D3FC01201249C1F88801FFF794
:101DF00024FF10BD10B500200D490860B920FEF782
:101E0000C5FC01200B49C1F88801032000F0FCFE4D
:101E100010BD10B5002006490860AB20FEF7B6FCE7
:101E200001200449C1F88801032000F0EDFE10BD37
:101E3000880121420000214200080140D800002012
:101E40004C0600202DE9F04104460D4616460027B9
:101E500000BF00BF00BF01F07DF9074600BF00BF13
:101E600098480078401C9749087000BF00BF38466A
:101E700001F074F900BF00BF00BF3246294620467A
:101E80000BF0B7FC804600BF00BF00BF01F062F955
:101E9000074600BF00BF8B480078401E8949087084
:101EA00008460078A0B988480088002809DD00BFEE
:101EB00000BF384601F052F900BF00BF03F00DFC2F
:101EC0000DE000BF00BF384601F048F900BF06E052
:101ED00000BF00BF384601F041F900BF00BF00BF9E
:101EE0004046BDE8F08170B50446002500BF00BF44
:101EF00000BF01F02FF9054600BF00BF7148007810
:101F0000401C7049087000BF00BF284601F026F948
:101F100000BF00BF00BF20460BF04FFF064600BFCA
:101F200000BF00BF01F016F9054600BF00BF6548BD
:101F30000078401E6349087008460078A0B96248DE
:101F40000088002809DD00BF00BF284601F006F91F
:101F500000BF00BF03F0C1FB0DE000BF00BF28467B
:101F600001F0FCF800BF06E000BF00BF284601F00A
:101F7000F5F800BF00BF00BF304670BD2DE9F04747
:101F800004460D4616461F464FF0000800BF00BF2E
:101F900000BF01F0DFF8804600BF00BF494800786D
:101FA000401C4849087000BF00BF404601F0D6F809
:101FB00000BF00BF00BF3B463246294620460BF01B
:101FC000CAFC814600BF00BF00BF01F0C3F88046D5
:101FD00000BF00BF3B480078401E3A4908700846E1
:101FE0000078A0B938480088002809DD00BF00BF8C
:101FF000404601F0B3F800BF00BF03F06EFB0DE0F8
:1020000000BF00BF404601F0A9F800BF06E000BFD6
:1020100000BF404601F0A2F800BF00BF00BF484625
:10202000BDE8F0872DE9F04104460D46002600BFCB
:1020300000BF00BF01F08EF8064600BF00BF214878
:102040000078401C1F49087000BF00BF304601F0F7
:1020500085F800BF00BF00BF294620460BF0BDFE3B
:10206000074600BF00BF00BF01F074F8064600BF7E
:1020700000BF14480078401E1249087008460078D6
:10208000A0B911480088002809DD00BF00BF304614
:1020900001F064F800BF00BF03F01FFB0DE000BFBC
:1020A00000BF304601F05AF800BF06E000BF00BF95
:1020B000304601F053F800BF00BF00BF3846BDE80E
:1020C000F0810000680100202C01002008B50121EA
:1020D000C8030DF042FF012119200DF031FF01214D
:1020E00032480DF042FD2820ADF8000018208DF890
:1020F000030003208DF8020069462D480DF064FCB2
:102100000420ADF8000010208DF80300694628482F
:102110000DF05AFC4FF4C070ADF800006946254838
:102120000DF052FC2C2122480DF0FBFC4FF4C07145
:1021300020480DF0F6FC20480DF066FF4FF44040BB
:102140001E4908804FF48270488000208880022059
:10215000C880012008814002488100208881C88110
:102160000720088214480DF075FF012112480EF077
:1021700016F808BD10B504461048848101460E4883
:102180000DF068FF01210C480EF009F810BD10B5E4
:10219000044600BF022108480EF085F80028F9D057
:1021A000214605480EF02CF810BD0000000230005A
:1021B000000C014000100140003C00404C16002083
:1021C00010B504460421F7480DF0ADFC4FF48071C2
:1021D000F5480DF0A8FC2046FFF7D9FF10BD10B55B
:1021E00004460421EF480DF09CFC4FF48071EE484A
:1021F0000DF099FC2046FFF7CAFF10BD70B50446EC
:102200000D461DB1E0B2FFF7EAFF02E0E0B2FFF7D2
:10221000D7FF70BD70B5002426E0E448005D08B328
:1022200004F1B0000021FFF7E9FF002518E0E048C5
:1022300000EBC500005D88B1102141EA15100021B6
:10224000FFF7DCFF05F00F000021FFF7D7FFD949AA
:1022500001EBC501085D0121FFF7D0FF681CC5B285
:10226000802DE4DB601CC4B2082CD6DB4FF4806107
:10227000CF4813F0E9FFCD4800210160416070BDF7
:1022800010B500218D20FFF7B9FF00211420FFF7C2
:10229000B5FF0021AF20FFF7B1FF10BD10B5002141
:1022A0008D20FFF7ABFF00211020FFF7A7FF0021D3
:1022B000AE20FFF7A3FF10BD70B505460C462646BD
:1022C000E11704EB5171C91001F1B0000021FFF7D3
:1022D00095FF102141EA15100021FFF78FFF05F04F
:1022E0000F000021FFF78AFF70BDF0B514460025EE
:1022F0007F2801DC402900DDF0BD0B46CF1701EB44
:102300005777C7F3C702CF1701EB5777FF10A1EB41
:10231000C707FEB20123B340DDB24CB1A54B03EBBE
:10232000C0039B5C2B43A34F07EBC007BB5408E0E3
:10233000A04B03EBC0039B5CAB439E4F07EBC00776
:10234000BB540123994FBB54994F07EBC007BB54B3
:1023500000BFD1E710B50246012000E050430B005A
:10236000A1F10104E1B2F9D110BD2DE9F04F804691
:102370000C4615461E46A346A5F12000C5B200270F
:102380003EE00C2E07D105EB45008B4901EB8000A8
:1023900010F8079004E0894800EB051010F807904A
:1023A0004FF0000A26E009F0800028B1214640469F
:1023B000099AFFF79AFF09E0099808B9012000E09F
:1023C0000020024621464046FFF78FFF4FEA496052
:1023D0004FEA1069601CC4B2A4EB0B00B04205D1F7
:1023E0005C4608F1010000F0FF0806E00AF1010078
:1023F00000F0FF0ABAF1080FD5DB00BF781CC7B2A6
:10240000B742BEDBBDE8F08F2DE9F04F06460C4623
:102410001746A2464FF0010B002533E0684800EB59
:10242000471010F805804FF0000925E008F0800003
:1024300028B15A4621463046FFF757FF0AE0BBF164
:10244000000F01D1012000E0002002462146304665
:10245000FFF74BFF4FEA48604FEA1068601CC4B2B8
:10246000A4EB0A00102803D15446701CC6B206E043
:1024700009F1010000F0FF09B9F1080FD6DB00BF38
:10248000681CC5B2202DC9DBBDE8F08F2DE9FF4FD8
:1024900081B0074691461E460E9D4FF0000A00246B
:1024A00039E0301B401EC1B20A20FFF753FFB9FBD1
:1024B000F0F00A21B0FBF1F201FB1208BAF1000FB3
:1024C00016D1701EA04213DDB8F1000F0ED101200D
:1024D000AB4605EBDB71491001FB04710090C8B2FB
:1024E0002B4620220299FFF740FF12E04FF0010A2D
:1024F0000120AB4605EBDB71491001FB0471009034
:10250000C8B208F13001CAB22B460299FFF72DFF7D
:1025100000BF601CC4B2B442C3DB05B0BDE8F08F9D
:1025200010B54FF48061234813F08EFE0122910212
:102530001F4813F082FE012208211C4813F07DFE83
:10254000FFF768FE10BDF8B505460E46144618E0C4
:102550007F2D03DD002506F11000C6B23F2E04DDFD
:10256000002005460646FFF7DBFF01200090227899
:10257000102331462846FFF7F8FE05F10800C5B2E2
:10258000641C20780028E3D1F8BD2DE9F047064609
:102590000F4690469946DDF820A034461DE03D46A2
:1025A00017E00000000C014000100140DA0000209C
:1025B0005E1A00205E160020286C01089C7001083D
:1025C0008C760108524629462046FFF78EFE681C8D
:1025D000C5B24D45F6DD601CC4B24445DFDDFFF7F2
:1025E00019FEBDE8F0872DE9F041044615460E4678
:1025F0004FEAE17801EB5878C8F3C7071E464FEA67
:10260000E37803EB5878C8F3C70C7E1E70B22DE058
:10261000002807DB082805DA0126DFF8D88308F848
:1026200000600DE028B90126DFF8C88388F807604C
:1026300006E0082804D10126DFF8B88388F8006096
:1026400022460FE00126DFF8B08308EBC20808F845
:1026500000600026DFF8A48308EBC20808F80060D9
:10266000561CF2B2AA42EDDD461C70B20CF1010616
:10267000B042CDDDBDE8F0812DE9F0410746884646
:1026800015461E463C460BE0012241462046FFF718
:102690002CFE012231462046FFF727FE601CC4B203
:1026A000AC42F1DD44460BE0012221463846FFF7FB
:1026B0001CFE012221462846FFF717FE601CC4B20B
:1026C000B442F1DDBDE8F081F0B504460D46164692
:1026D0001F462B46324629462046FFF7CDFF3B4694
:1026E000324639462046FFF7C7FF3B462246294679
:1026F0002046FFF7C1FF3B46324629463046FFF7EA
:10270000BBFFF0BD2DE9FF4F93B006461746B81B3F
:1027100000EBD07149101291149A1699881A00EBA7
:10272000D07149101191F019401010901699149819
:1027300008444FEA600A4FF0FF3B00200F900E90D4
:102740001098A6EB00088AE0109800EB080500201E
:102750000F90129901FB01F013F041FF03904046E6
:1027600013F03DFF0190404613F039FF00900199AE
:1027700013F0E4FD0290039913F012FE4FF07E5126
:10278000049013F0D8FD059013F06FFFCDE906011A
:1027900014F024FACDE90A01119813F029FFCDE9CC
:1027A0000801DDE90A2313F039FECDE90C0113F02D
:1027B0003DFF04460BF10101C9B1A4EB0B00002859
:1027C00001DB014600E04142012910DDA4EB0B00D2
:1027D000002801DB014600E04142A4EB0B02002A85
:1027E00002DD4FF0FF3200E0012251430F910AEB6E
:1027F000040909F0FF01E8B20122FFF776FDAAEB18
:10280000040909F0FF01E8B20122FFF76EFD002084
:102810000E9018E00AEB04010E98A1EB000909F0F4
:10282000FF01E8B20122FFF760FDAAEB04010E9858
:1028300001EB000909F0FF01E8B20122FFF755FDA5
:102840000E98401C0E900F98002801DB014600E016
:1028500041420E9A9142DDDCA34608F1010810982E
:10286000381A4045BFF670AF17B0BDE8F08F70B5AD
:1028700006464FF480623146604813F0BEFC0025E6
:102880001EE005F1B0000021FFF7B8FC002413E0C2
:10289000102141EA14100021FFF7B0FC04F00F00F2
:1028A0000021FFF7ABFC554901EBC401485D012154
:1028B000FFF7A4FC601CC4B2802CE9DB681CC5B225
:1028C000082DDEDB70BD10B5044600212046FFF761
:1028D00095FC10BD10B5FFF7F9FB802148480DF0BD
:1028E00022F942F2107000F0DBF9802144480DF02B
:1028F00018F9AE20FFF7E7FF0020FFF7E4FF1020F4
:10290000FFF7E1FF4020FFF7DEFF8120FFF7DBFF4D
:10291000CF20FFF7D8FFA120FFF7D5FFC820FFF792
:10292000D2FFA620FFF7CFFFA820FFF7CCFF3F2064
:10293000FFF7C9FFD320FFF7C6FF0020FFF7C3FF53
:10294000D520FFF7C0FF8020FFF7BDFFD920FFF79C
:10295000BAFFF120FFF7B7FFDA20FFF7B4FF12202C
:10296000FFF7B1FFDB20FFF7AEFF4020FFF7ABFF23
:102970002020FFF7A8FF0220FFF7A5FF8D20FFF71B
:10298000A2FF1420FFF79FFFA420FFF79CFFA620C3
:10299000FFF799FFAF20FFF796FFAF20FFF793FFF8
:1029A00010BD2DE9F04106460F46002516E0002433
:1029B00011E0082000FB0540305C082101FB0541C7
:1029C000795C884206D001200B4901EBC50108550E
:1029D00008490855641C082CEBDB6D1C802DE6DBD8
:1029E0004FF480623146054813F007FCFFF712FCF4
:1029F000BDE8F081DA0000205E1A00205E1600209B
:102A00000010014008B5012108200DF099FAC020FE
:102A1000ADF8000010208DF8030003208DF80200AF
:102A2000694652480CF0D0FFC02150480DF079F8AB
:102A300008BD40204D491031086080200860091D04
:102A40000860402008607047402048491031086005
:102A50008020091D0860091F086070474020434915
:102A600010310860091D0860704730B501460846FE
:102A700040243E4D14352C60002317E0024602F03E
:102A80008002802A04D18024384D10352C6003E068
:102A90008024364D14352C604406200E4024334DDE
:102AA00010352C602D1D2C605C1CE3B2082BE5DB7F
:102AB00030BD10B50446FFF7BCFF7820FFF7D5FF07
:102AC000FFF7CCFF0020FFF7D0FFFFF7C7FF20463E
:102AD000FFF7CBFFFFF7C2FFFFF7B6FF10BD10B542
:102AE0000446FFF7A6FF7820FFF7BFFFFFF7B6FF0A
:102AF0004020FFF7BAFFFFF7B1FF2046FFF7B5FF11
:102B0000FFF7ACFFFFF7A0FF10BD30B504460D4640
:102B10001DB1E0B2FFF7E3FF02E0E0B2FFF7C9FF4B
:102B200030BD06E041F6650100E0491E0029FCD1F8
:102B3000401E0028F6D17047704770B506460C4617
:102B40001546FFF776FF3046FFF78FFFFFF786FF4A
:102B50002046FFF78AFFFFF781FF2846FFF785FF32
:102B6000FFF77CFFFFF770FF002070BD000C0140F5
:102B700008B5684602F0EEF808BD08B5684602F0F0
:102B800033F908BD38B504466A460821204608F0E6
:102B90001FFC38BD10B549480078012805D102F066
:102BA0001BF808F0A1FE02F028F810BD10B56FF078
:102BB00004000EF010FD424800684249B0FBF1F0FD
:102BC000414908703E4800683E49B0FBF1F43F4877
:102BD0000068C910B1FBF0F044433C4800684FF472
:102BE0007A71B1FBF0F03A4908804FF0E0200069BB
:102BF00040F002004FF0E02108610846446100699E
:102C000040F00100086110BD2DE9F047074600269D
:102C10004FF0E020D0F814902B48007807FB00F824
:102C200000BFFFF7A5FF4FF0E020856911E04FF0EE
:102C3000E0208469AC420CD0AC4202D2281B06448E
:102C400003E0A9EB0400284406442546464500D38A
:102C500000E0ECE700BFFFF790FFBDE8F08770B53C
:102C6000044616480078A0B11A48007888B9184878
:102C70000088844206DB1648008894FBF0F528465D
:102C8000FFF780FF1248008894FBF0F100FB114031
:102C900084B24FF47A7104FB01F0FFF7B5FF70BD09
:102CA000014605E0002001E0421CD0B27B28FBDB9E
:102CB0000A00A1F10101F5D17047000021010020B7
:102CC000C400002000127A00E2000020FC8101080C
:102CD000E400002020010020014600BF704700BF33
:102CE0004B4A128802F04002002AF9D0C2B2484B87
:102CF0001B1D1A80704710B586B00446012144F2AE
:102D000004000DF01DF942480EF012FA4FF4007065
:102D1000ADF8140003208DF8160018208DF8170068
:102D200005A93C480CF050FE4FF48060ADF814004B
:102D300004208DF8170005A936480CF045FE252023
:102D40008DF8000003208DF801008DF802000120AD
:102D50008DF8030068460EF0F4FB01940020ADF8F6
:102D60000800ADF80A00ADF80C00ADF810000C201A
:102D7000ADF80E0001A926480EF01DFA012240F21E
:102D8000255123480EF0AFFA012121480EF09FFA99
:102D900006B010BD10B540F225511D480EF088FB5D
:102DA00010B31B480EF004FBC4B21B48008800F4AB
:102DB0000040C8B91848008800F4804060B10A2C6F
:102DC00003D000201449088020E01348008840F414
:102DD00000401149088019E00D2C06D10E480088EA
:102DE00040F480400C49088010E00B480088C0F394
:102DF0000D000A490C5408480088401C0649088008
:102E000008460088C72801DD0020088010BD0000AA
:102E10000038014000080140EC0000205E1E002048
:102E200000B585B068460DF01EF8019805B000BDEC
:102E300010B5FFF7F5FF04461748006840F08070B2
:102E4000154908600020154948600846006840F0B0
:102E500001000860204600F0B6F810BD0F49486830
:102E600070472DE9F0478246FFF7DAFF4FF000097F
:102E700080460B4A00234046494613F08DF906462A
:102E800032460B465046002113F086F904460D46A3
:102E900020462946BDE8F087FCED00E0001000E088
:102EA00040420F0010B5002400BF00BF00F052F9EF
:102EB000044600BF00BF1021A14800F0E4FA00BFA3
:102EC00000BF204600F04AF900BF00BF10BD10B59A
:102ED000FFF7E8FF10BD10B500209A490860FFF722
:102EE000A7FF10BD10B5FFF7F6FFFFF7F0FF10BD0D
:102EF00000BFFEE770B505460C46002614B900BFBA
:102F0000FFF7F6FF15B90A20208070BD00BF00BF93
:102F100000F020F9064600BF00BF1022884928466D
:102F200000F068FF00BF00BF304600F017F900BF97
:102F300000BF0020208000BFE7E72DE9F0410546F3
:102F40000C46002714B900BFFFF7D2FF1DB90A20B5
:102F50002080BDE8F0811021284600F033FF0646AE
:102F6000102E15D200BF00BF00F0F4F8074600BFD6
:102F700000BF10222946724800F03CFF00BF00BF8E
:102F8000384600F0EBF800BF00BF0020208002E0D0
:102F90004FF47A70208000BFDBE710B5FFF75EFFCB
:102FA0000446204610BD704700B5014611B900BF68
:102FB000FFF79EFF634A106808B1002201E04FF45A
:102FC000FA620A8000BD5F490860704770B5054627
:102FD000284600F0CAF80446183C204670BD70B57B
:102FE0000546284600F0C1F80446103C204670BD56
:102FF00070B50546284600F0B8F8044600BF2046E4
:1030000070BD30B502460B460024D2F1FF359C411D
:1030100026D24FF6FF74D2F1FF359C410FD26FF0EC
:103020007F44D2F1FF359C4103D2190E464C605CBF
:1030300044E0190C444C645C04F108003EE0FF24B9
:10304000D2F1FF359C4105D2190A3F4C645C04F172
:10305000100033E019463C4C645C04F118002DE08C
:103060004FF6FF750024AD1A9C4115D26FF07F45D5
:103070000024AD1A9C4107D2140E44EA0321324CBD
:10308000645C04F1200019E0140C44EA03412E4C66
:10309000645C04F1280011E00024D2F1FF059C419A
:1030A00007D2140A44EA0361274C645C04F130003F
:1030B00004E01146244C645C04F1380030BD70B566
:1030C00004460CB9082070BD204600F051F80546B2
:1030D0002846F8E770B504460CB9102070BD2046AC
:1030E00000F046F805462846F8E770B504460CB9E6
:1030F000202070BD204600F03BF805462846F8E742
:103100002DE9F04304460D46002184EA01006940A0
:10311000084302D14020BDE8F083E243E843521C5B
:1031200040F1000102EA040601EA0507304639468B
:10313000FFF767FF8046C8F13F094846EBE700000C
:10314000261F0020F00000200480010872B670479E
:1031500062B67047EFF3108072B6704780F3108844
:10316000704730BF704720BF7047B0FA80F070479B
:1031700090FAA0F0B0FA80F0704790FAA0F0704793
:103180000648804706480047FEE7FEE7FEE7FEE701
:10319000FEE7FEE7FEE7FEE7FEE7FEE7FB190008B5
:1031A000ED0000080146412903DB5A2901DC012218
:1031B00000E00022012A08D0612903DB7A2901DC22
:1031C000012200E00022012A01D1012200E00022B8
:1031D000104670470146412903DB5A2901DC0122D0
:1031E00000E00022012A08D0612903DB7A2901DCF2
:1031F000012200E00022012A01D1012200E0002288
:10320000012A08D0302903DB392901DC012200E042
:103210000022012A01D1012200E00022104670475D
:103220000146612903DB7A2901DC012200E000224A
:10323000104670470146412903DB5A2901DC01226F
:1032400000E00022104670470146302903DB39298F
:1032500001DC012200E000221046704701463029BF
:1032600003DB372901DC012200E000221046704711
:103270000146302901DB392907DD412901DB4629D7
:1032800003DD612903DB662901DC012200E0002265
:10329000104670470146202901D0092901D1012299
:1032A00000E00022104670470146202909D00D2970
:1032B00007D00A2905D00C2903D0092901D00B29F0
:1032C00001D1012200E0002210467047014620296A
:1032D00003DB7E2901DC012200E00022104670475A
:1032E0000146212903DB7E2901DC012200E00022C6
:1032F000104670470146202903DB7E2901DC0122AC
:1033000000E00022012A35D1202909D00D2907D05B
:103310000A2905D00C2903D0092901D00B2901D194
:10332000012200E000222ABB412903DB5A2901DCEB
:10333000012200E00022012A08D0612903DB7A295A
:1033400001DC012200E00022012A01D1012200E07B
:103350000022012A08D0302903DB392901DC0122AF
:1033600000E00022012A01D1012200E000220AB976
:10337000012200E000221046704701464AB2002AAE
:1033800001DB1F2901DD7F2901D1012200E000229C
:10339000104670470146412903DB5A2901DC01220E
:1033A00000E00022012A02D101F1200200E00A46D9
:1033B000D0B270470146612903DB7A2901DC012282
:1033C00000E00022012A02D1A1F1200200E00A4619
:1033D000D0B27047F0B504460B462046FFF7EAFF2F
:1033E00005461846FFF7E6FF0646B54201D1012023
:1033F00000E0002007463846F0BD0000FC48FD49CB
:1034000001600146416000218160C160016141614C
:103410008161C16101620163C1624162F6498163F8
:10342000C1634FF48061016441640146F34A116055
:1034300070472DE9F04105460B46944600270024CD
:1034400002E03F021F43641C042CFAD3604605F0DF
:103450000306294646B1344603E001F8013B401E0D
:10346000641C08B1042CF8D30A4601E080C2001F96
:103470000428FBD2114602E001F8013B401E00285F
:10348000FAD1BDE8F08130B505460C462246002150
:103490002846FFF7CEFF30BD2DE9F04F85B0074637
:1034A0008846914646463D46AE4207D94A46414681
:1034B000384601F01DF905B0BDE8F08F4C4607EB2A
:1034C0000900451E08EB0900461EA81B049004983D
:1034D000042834D305F00300029006F003010191A3
:1034E000DDE90110884201D1012000E000200090B8
:1034F0000098012823D10298032810D0029840B2E6
:10350000039008E016F8010905F80109641E039804
:10351000401E40B2039014B103980028F2DAA5F1DE
:10352000030AA6F1030B04E05BF804094AF8040956
:10353000241F042CF8D20AF103050BF1030604E062
:1035400016F8010905F80109641E002CF8D100BF26
:10355000B1E72DE9F84F80468946154615B9012097
:10356000BDE8F88FB8F1000F01D10020F8E7B9F1FC
:10357000000F01D10020F3E70124294608EB0502E2
:1035800009EB050302F0030C03F0030BDC4501D14A
:10359000012000E0002000900098012829D1BCF112
:1035A000000F12D0E2460AE0521E5B1E107893F81C
:1035B00000E0704500D00024491EAAF1010A012C48
:1035C00003D111B1BAF1000FEED1012C11D1164681
:1035D0001F4608E0361F3F1F3068D7F800E07045EF
:1035E00000D00024091F012C01D10429F2D2324657
:1035F0003B4608E0521E5B1E107893F800E07045D1
:1036000000D00024491E012C01D10029F2D120460E
:10361000A6E7F0B503460E461546D96BB1FBF5F0AB
:1036200005FB101CBCF1000F02D0A5EB0C0200E062
:1036300000229419586CA04201D20020F0BD0F194D
:103640001144DF63586C001B58640846F6E72DE907
:10365000F04106460F46B6FBF3FC03FB1C6109B1C3
:103660005C1A00E00024B2FBF3FC03FB1C2109B14F
:103670005D1A00E0002502EB0508A7F1010C08FB2C
:103680000C4C0CEB0200BDE8F0812DE9FE4F8046AA
:10369000894614461E46002000900CB901AC00BFBC
:1036A00000202060524F00BF00BFFFF753FD009085
:1036B00000BF00BFF86B0290D7F844B04B464246BB
:1036C00001210298FFF7C3FF05465D450FD900BFF2
:1036D00000BF0098FFF742FD00BF00BFA5EB0B0045
:1036E000206042F2E27030800020BDE8FE8F4A4642
:1036F00041463846FFF78DFF8246BAF1000F0CD1E4
:1037000000BF00BF0098FFF729FD00BF00BF256084
:1037100042F2E27030800020E7E700BF00BF00986F
:10372000FFF71CFD00BF00BF42F210703080504612
:10373000DBE72DE9FC5F07460C4690460020009031
:1037400000BF00BFFFF706FD009000BF00BFD7F825
:103750000490D9F8380008B1484600E02448824671
:10376000DAF84450DAF83CB000BF00BF0098FFF729
:10377000F5FC00BF00BF012C0AD9BBFBF4F004FB31
:1037800010B60EB1A01B00E00020019001982D1A88
:1037900042F21070A8F800002846BDE8FC9F70B502
:1037A00004460D462A4621461148FFF7C2FF064649
:1037B000304670BD18B942F211720A807047104A43
:1037C0000260002242608260C260026142618261E6
:1037D000C2610262826242630263C26242628263C7
:1037E000C2630264426442F210720A8000BFE5E7DD
:1037F000381F002048454150801F0020F400002061
:103800004E4F4E452DE9FF4F91B00446DDE920892A
:1038100000200090B8F1000F02D10DF1180800BF90
:103820000020C8F8000049462046FFF7C3FFB9F85A
:10383000000042F21071884202D015B0BDE8F08F4E
:10384000FE48006820B942F2E770A9F80000F4E7EA
:10385000DFF8ECA30020059000BF00BFFFF77AFC63
:10386000009000BF00BF129880BB5546AB462E4665
:10387000DAF83C000D9004231A4614990D98FFF7CE
:10388000E6FE049004990D9808440C90DDE91E238F
:1038900014990C98FFF7DBFE0390DDE9030108445F
:1038A0000590DAF844700598B8427DD900BF00BF92
:1038B0000098FFF753FC00BF00BF0598C01BC8F875
:1038C000000042F2E270A9F80000B6E7FFE71298A4
:1038D0000B90DDE912010844401E0A900025AB461A
:1038E000D64806683BE0B16B1298814205D1316C35
:1038F0001398814201D1354633E0B06B0990316CA9
:10390000B06B0844401E0890DDE90901814200D2F5
:1039100027E009990B98884203D8DDE9091088420D
:103920000FD209990B98884203D308990A988842C4
:1039300007D908990B9888420FD808990A988842A5
:103940000BD300BF00BF0098FFF708FC00BF00BF0B
:1039500042F27F70A9F800006FE7B346F668002EC8
:10396000C1D100BF45B925461298A0631298E06303
:103970001398206413986064DAF83C000D900423D7
:103980001A4614990D98FFF762FE0490DAF8447015
:103990000498B84211D900BF00BF0098FFF7DEFBC2
:1039A00000BF00BF049800E024E0C01BC8F800007E
:1039B00042F2E270A9F800003FE7E86B0C90DDE905
:1039C0001E2314990C98FFF742FE03906F6C039826
:1039D000B8420FD900BF00BF0098FFF7BFFB00BF80
:1039E00000BF0398C01BC8F8000042F2D870A9F8C5
:1039F000000022E7149880000290042250460299A9
:103A0000FFF707FE0F900F9830BBDAF8447000BF45
:103A100000BF0098FFF7A2FB00BF00BF129858B983
:103A20000598B84204D90598C01BC8F800000EE0FC
:103A30000598C8F800000AE00298B84204D9029834
:103A4000C01BC8F8000002E00298C8F8000042F26B
:103A5000E270A9F80000F0E60020019034E028466A
:103A6000DDE91E12FFF7D5FD0E900E9820BBE86B26
:103A70000C906F6C00BF00BF0098FFF76FFB00BF9A
:103A800000BF01991498401A0790DDE91E23079999
:103A90000C98FFF7DCFD05900598B84204D905980D
:103AA000C01BC8F8000002E00598C8F8000042F208
:103AB000D870A9F80000C0E6019ADDE90E0141F8CE
:103AC00022000198401C0190149901988842C6D3A5
:103AD000A5420DD1C4F808B0E660BBF1000F02D0DA
:103AE000CBF80C4001E0554804605EB1B46009E0D9
:103AF000686910902561109860616C61109808B138
:103B0000109804614F48206065600C98A06103998B
:103B10000C980844401EE0610F9820620398A06250
:103B20001F9860631E9820631498E0621498606286
:103B300000BF00BF0098FFF711FB00BF00BF42F2BB
:103B40001070A9F8000000BF77E62DE9F0410446A7
:103B50000D46002700BF00BFFFF7FCFA074600BF75
:103B600000BF666A00BF00BF3846FFF7F7FA00BF24
:103B700000BF42F2107028803046BDE8F0812DE988
:103B8000F041044688461546002700BF00BFFFF7F6
:103B9000E1FA074600BF00BF606A60B900BF00BF1E
:103BA0003846FFF7DBFA00BF00BF42F2DE70288024
:103BB0000020BDE8F081E16A606A88420BD900BF4D
:103BC00000BF3846FFF7CAFA00BF00BF42F2957047
:103BD00028800020EDE7606A401E6062D4E9080199
:103BE00050F8216000BF00BF3846FFF7B7FA00BFAA
:103BF00000BF42F2107028803046DAE72DE9F04726
:103C000004460F4615464FF0000900BF00BFFFF7FE
:103C1000A1FA814600BF00BFE06AC01B461EE06AF1
:103C2000B04213D800BF00BF4846FFF797FA00BF65
:103C300000BF42F295702880002005E0F4000020CB
:103C4000381F0020504F4F4CBDE8F087606AB042EB
:103C50000BD900BF00BF4846FFF780FA00BF00BF86
:103C600042F2957028800020E7E7206A50F826800D
:103C700000BF00BF4846FFF771FA00BF00BF42F225
:103C8000107028804046D8E72DE9F04704460E46DC
:103C900017464FF0000A00BF00BFFFF75BFA8246ED
:103CA00000BF00BFE16A606A88420BD300BF00BF5B
:103CB0005046FFF753FA00BF00BF42F2DD70388074
:103CC000BDE8F0874FF00008656A08E0206A50F808
:103CD0002590B14502D14FF0010803E06D1CE06A68
:103CE000A842F3D800BFB8F1010F06D1D4E908010A
:103CF00050F82100216A41F82500D4E9080140F874
:103D00002160606A401C606200BF00BF5046FFF740
:103D100025FA00BF00BF42F21070388000BFCFE725
:103D20002DE9F84F04460F461646002000904FF04C
:103D3000FF3B00BF00BFFFF70DFA009000BF00BFC0
:103D4000E16A606A88420CD300BF00BF0098FFF7A9
:103D500005FA00BF00BF42F2DD7030805846BDE872
:103D6000F88F4FF00009656A08E0206A50F8258056
:103D7000B84502D14FF0010903E06D1CE06AA8428A
:103D8000F3D800BFB9F1010F0FD1E06A401EA0EBDC
:103D9000050A00BF00BF0098FFF7E0F900BF00BFB1
:103DA00042F2107030805046D9E700BF00BF009843
:103DB000FFF7D4F900BF00BF42F288703080584648
:103DC000CDE7000010B502460B461146002001E089
:103DD000491C401C19B10C780CB19842F8D310BDA5
:103DE00030B504464FF0FF312046FFF7EBFF0546A4
:103DF000284630BD70B504460D4616460CB9002065
:103E000070BD0DB90020FBE721462A46002304E0DF
:103E100010780870491C521C5B1C21B11AB1107833
:103E200008B1B342F4D301B10AB90020E8E7B342C4
:103E300001D2002008702046E2E770B504460D4626
:103E40004FF0FF3229462046FFF7D4FF06463046A2
:103E500070BD70B503460C4615460BB9002070BD09
:103E60000CB90020FBE70DB91846F8E7194600E049
:103E7000491C11B108780028FAD109B90020EEE7F1
:103E80002246002604E010780870491C521C761C5B
:103E900021B11AB1107808B1AE42F4D301B10AB918
:103EA0000020DCE7002008701846D8E770B504460B
:103EB0000D464FF0FF3229462046FFF7CAFF06465F
:103EC000304670BD2DE9F04305460B469446BCF1E3
:103ED000000F02D10020BDE8F08335B90BB90020F6
:103EE000F9E7187842421046F5E713B92A781046E8
:103EF000F1E729461C460F4626467F1C761C4FF0EC
:103F0000000805E0491C641C7F1C761C08F10108B0
:103F1000087894F80090484505D1087818B117B191
:103F20000EB1E045EED3E04501D10020D3E708789B
:103F300094F80090484505D0087894F80090A0EBDC
:103F400009020BE0087808B9002207E02FB90EB982
:103F5000002203E03078424200E03A781046BAE7A7
:103F600070B504460D464FF0FF3229462046FFF754
:103F7000A9FF0646304670BD2DE9F74F82B0804656
:103F80000E46049818B9002005B0BDE8F08FB8F1CE
:103F9000000F09D10EB90020F6E73078FFF7FAF9E3
:103FA00007467C422046EFE73EB998F80000FFF74D
:103FB000F1F905462C462046E6E7C146B246C8461A
:103FC000C3465646CDF804A0D8460BF1010B019E1E
:103FD000701C0190C84699F80000FFF7DBF9054610
:103FE00056469AF80000FFF7D5F9074600200090E2
:103FF00015E009F101090AF1010A0BF1010B019821
:10400000401C01900098401C009099F80000FFF7B8
:10401000C1F905469AF80000FFF7BCF90746BD4212
:104020000BD199F8000040B1BBF1000F05D0019809
:1040300018B1049900988842DBD30499009888420B
:1040400001D10020A0E7BD4201D0EC1B16E00DB964
:10405000002413E0BBF1000F0AD1019808B9002435
:104060000CE001990878FFF795F907467C4205E0D6
:104070009BF80000FFF78EF905462C46204683E7A3
:1040800070B504460D464FF0FF3229462046FFF733
:1040900073FF0646304670BD30B504460B461546E4
:1040A0000CB9002030BD0BB90020FBE721460022EF
:1040B00001E0491C521C31B1087820B10878A842AF
:1040C00001D09A42F5D309B90020EBE79A4201D317
:1040D0000020E7E70878A84201D00020E2E7084680
:1040E000E0E770B505460C4622464FF0FF31284602
:1040F000FFF7D2FF0646304670BD2DE9F043054676
:104100000E46174615B90020BDE8F0830EB9002011
:10411000FAE72C46A6F1010949462046FFF752FE70
:10412000804644440CB90020EEE700E0641EAC4237
:1041300002D02078B842F9D12078B84201D00020CE
:10414000E2E72046E0E770B505460C4622464FF010
:10415000FF312846FFF7D1FF0646304670BD70B5E7
:1041600004460D4616460CB9002070BD0BB9002060
:10417000FBE721461A4605E00878A84200D10E70F8
:10418000491C521E19B1087808B1002AF4D1204602
:10419000EBE7F0B504460D4616464FF0FF333246C6
:1041A00029462046FFF7DBFF07463846F0BD2DE9DC
:1041B000FF4F06460F4615461EB9002004B0BDE865
:1041C000F08F0FB90020F9E70DB90020F6E7681C61
:1041D00000B101E04FF0FF30039029463046FFF771
:1041E000F1FD804638460399FFF7ECFD04460CB913
:1041F0003046E3E7444501D90020DFE706EB080B32
:10420000BBF1000F01D10020D8E707EB040BBBF195
:10421000000F01D10020D1E7A8EB040002904FF07D
:1042200000090020019000BF06EB09000090224623
:1042300039460098FFF746FE8246BAF1000F01D1D9
:10424000012000E00020019009F10109019810B956
:1042500002988145E8D9BAF1000F01D00020ADE7FE
:104260000098ABE770B504460D464FF0FF32294683
:104270002046FFF79CFF0646304670BD2DE9FF4FF4
:104280008DB00F4615461A9E1D9818B9002011B022
:10429000BDE8F08F002003900490012F01DA012087
:1042A0000390022D01D3242D01D90120039096B350
:1042B0003046FFF70BF802900298012802D0012047
:1042C000039028E0302E26D0A6F13000C0B207902F
:1042D0001B98012804D0A6F14100C0B2069003E06B
:1042E000A6F16100C0B206900A2D02D80798A84234
:1042F00009DB0A2D09D907980A2804D3A5F10A0079
:104300000699884201D9012000E000200590059817
:10431000012800D103901D9C0398002846D1DDF8A8
:1043200034A0DDF834A0CDF830A001200B9007E0D8
:104330000B98401CC0B20B900C98B0FBF5F00C90A1
:104340000C98A842F4D21098012800D100E0002077
:1043500009900B9909980844B84225DC0020019087
:104360000B98B84201DA0B9800E038460A903EB14B
:10437000B8460A98391A0998081AC0B2089006E097
:10438000DDE90910084400F0FF08002008900898B3
:10439000002806DD302E01D1012000E0002004902D
:1043A00004E00020049001E001200390039800B194
:1043B000B84644441C9808B100202070641E4FF099
:1043C000000941E00398A8BBBAF1000F02D1B9F18E
:1043D000000F1CD1BAFBF5F005FB10A000F0FF0B9D
:1043E000BBF10A0F04D20BF1300004F801090BE015
:1043F0001B98012804D00BF1370004F8010903E0F1
:104400000BF1570004F80109BAFBF5FA1AE010980D
:10441000012810D1049808B9019828B1049850B126
:10442000A8F10100484506D12D2004F8010901201A
:10443000019007E003E02EB104F8016902E03F209B
:1044400004F8010909F10109C145BBD3039808B17A
:1044500000201CE71D981AE72DE9FF5F05460E4670
:1044600017461C46DDE90F9ADDF8388000233A46EE
:10447000314628468DE81007FFF700FF834658466F
:1044800004B0BDE8F09F2DE9FF4F85B00446894692
:104490001F46DDE913AB002C02DA6542012601E07C
:1044A0002546002612983346CDE902ABCDE90070CF
:1044B00049462846079AFFF7E1FE8046404609B084
:1044C000BDE8F08F2DE9FF4F8BB0064689461546B3
:1044D000B9F1000F02D10DF1240900BFC9F8006045
:1044E000189810B907A8189000BF002118980170FB
:1044F0001EB900200FB0BDE8F08F012D01D0242D92
:1045000001D90020F6E734462078FEF7CDFE03906F
:1045100004E0641C2078FEF7C7FE0390039801288E
:10452000F7D020782B2802D02D280BD103E0641C73
:104530004FF0000B09E00E98012800D1641C4FF0E9
:10454000010B02E04FF0000B00BF00BF0A9425B141
:10455000082D1CD0102D36D11EE02078302814D123
:10456000641C2078582802D078280BD100BF102571
:1045700067783846FEF77CFE8246BAF1010F00D11B
:10458000641C01E0082500BF00E00A251CE020783B
:10459000302800D1641C17E02078302812D1641C28
:1045A0002078582802D078280AD100BF677838468A
:1045B000FEF75EFE8246BAF1010F00D1641C00E0F6
:1045C00000BF00BF00E000BF00BF4FF000080020A8
:1045D0000290019040E027783846FEF7FBFD0590F9
:1045E0000598012836D13846FEF72EFE069006982B
:1045F000012804D1A7F13000C0B208900FE038467E
:10460000FEF70EFE04900498012804D1A7F157008C
:10461000C0B2089003E0A7F13700C0B20890089834
:10462000A84214DA029880B9304850F82500404575
:1046300009D308FB05F8089880440898804504D2FF
:104640000120029001E001200290641C04E001209E
:10465000019001E00120019001980028BBD0029850
:10466000012801D14FF0FF380A98844202D0C9F8DE
:10467000004001E0C9F80060189880F800B040469A
:1046800038E7F8B504460D46164600200346324684
:10469000294600902046FFF715FF07463846F8BD2B
:1046A0002DE9FC4105460E46174601A801233A466E
:1046B000314600902846FFF705FF04469DF80400A8
:1046C00040B9B4F1004F02D36FF0004000E0204643
:1046D000804607E0B4F1004F02D34FF0004000E005
:1046E000604280464046BDE8FC8100000881010828
:1046F000002800D17047002900D17047002A00D15E
:1047000070472DE9F81F00F0030301F00304A342F2
:1047100011D1C3F1040303F00303012B1DD3012ABC
:1047200000D2F2E011F8014B00F8014BA3F10103B4
:10473000A2F10102F1E700F0010301F00104A3423C
:1047400000D094E0012B44D311F8014B00F8014B49
:10475000A3F10103A2F10102F4E7B2F5B47F26D37D
:10476000B1E8F81FA0E8F81FB1E8F81FA0E8F81FAB
:10477000B1E8F81FA0E8F81FB1E8F81FA0E8F81F9B
:10478000B1E8F81FA0E8F81FB1E8F81FA0E8F81F8B
:10479000B1E8F81FA0E8F81FB1E8F81FA0E8F81F7B
:1047A000B1E8F81FA0E8F81FA2F5B472D5E7282AEF
:1047B00006D3B1E8F81FA0E8F81FA2F12802F6E737
:1047C000042A06D351F8043B40F8043BA2F104024A
:1047D000F6E7202A42D331F8023B20F8023B31F8B9
:1047E000023B20F8023B31F8023B20F8023B31F853
:1047F000023B20F8023B31F8023B20F8023B31F843
:10480000023B20F8023B31F8023B20F8023B31F832
:10481000023B20F8023B31F8023B20F8023B31F822
:10482000023B20F8023B31F8023B20F8023B31F812
:10483000023B20F8023B31F8023B20F8023B31F802
:10484000023B20F8023B31F8023B20F8023B31F8F2
:10485000023B20F8023BA2F12002BAE7022A06D36B
:1048600031F8023B20F8023BA2F10202F6E7102ADF
:1048700042D311F8013B00F8013B11F8013B00F86D
:10488000013B11F8013B00F8013B11F8013B00F836
:10489000013B11F8013B00F8013B11F8013B00F826
:1048A000013B11F8013B00F8013B11F8013B00F816
:1048B000013B11F8013B00F8013B11F8013B00F806
:1048C000013B11F8013B00F8013B11F8013B00F8F6
:1048D000013B11F8013B00F8013B11F8013B00F8E6
:1048E000013B11F8013B00F8013B11F8013B00F8D6
:1048F000013BA2F11002BAE7012A06D311F8013BED
:1049000000F8013BA2F10102F6E7BDE8F81F70478D
:10491000154816481648174817481848184819489F
:1049200019481A481A481B481B481C481C481D486F
:104930001D481E481E481F481F482048204821483F
:10494000214822482248234823482448244825480F
:1049500025482648264827482748284828482948DF
:10496000294800BF704700003C8201089C81010873
:10497000A0810108A4810108A8810108AC81010877
:10498000B0810108B4810108B8810108BC81010827
:10499000C0810108C4810108C8810108CC810108D7
:1049A000D0810108D4810108D8810108DC81010887
:1049B000E0810108E4810108E8810108EC81010837
:1049C000F0810108F4810108F8810108FC810108E7
:1049D0000082010804820108088201080C82010893
:1049E0001082010814820108188201081C82010843
:1049F0002082010824820108288201082C820108F3
:104A0000308201083482010838820108002400BF86
:104A100019E000BF00BFFEF79DFB044600BF00BFCA
:104A2000F7480068401CF6490860F6480068401CDA
:104A3000F449086000BF00BF2046FEF78FFB00BFAF
:104A400000BF07F083FBE4E710B58AB004460020FE
:104A5000EB4908600B2000210591CDE90704069180
:104A60000846E9490968E94A1268E94B1B68CDE93B
:104A70000132CDE903103F200023AFF26F02E5A120
:104A80000090E94804F08EFD0AB010BD00210AE054
:104A900001EB4102E54B03EB820000220281026040
:104AA00042604A1CD1B24029F2D3704770B5044627
:104AB00007F054FB0020DE490870DE490870DE492B
:104AC0000870DE490860DE490860DE490870DE498A
:104AD0000870DE490870DE490860DE490860DE497A
:104AE0000860DE490870DE4800680A21B0FBF1F07A
:104AF000DC490860DC48006858B1DC48056845B10D
:104B0000D948066803E0761E002028602D1D002E7F
:104B1000F9D10020D6490860D6490860D649086016
:104B2000D6490860D6490860D6490860D649086069
:104B3000D649087003F016F8FFF7A8FF204601F0E9
:104B40003FFE208800B170BD204602F07AF920882F
:104B500000B1F8E7204602F0A0F9208800B1F2E7A2
:104B6000204602F0E7FF208800B1ECE7204603F082
:104B700093FC208800B1E6E7204604F0A9F82088DD
:104B800000B1E0E7204606F07DF9208800B1DAE7C1
:104B9000204601F09AFF208800B1D4E72046FFF7B5
:104BA00053FF208800B1CEE7204606F0C2FA2088E5
:104BB00000B1C8E7204604F044FB208800B1C2E7FA
:104BC000204607F01EFA208800B1BCE700F020FE66
:104BD000FFF79EFE00BFB6E796480078012800D098
:104BE000704793480078FA2800DBF9E7904800788E
:104BF000401C8F49087000BFF2E710B500248D48B3
:104C00000078012800D010BD00BFFEF7A3FA0446CB
:104C100000BF8748007828B900BF2046FEF79EFAFB
:104C200000BFF0E782480078401E814908700846BE
:104C30000078002805DD00BF2046FEF78FFA00BF90
:104C4000E1E77D480078002805DD00BF2046FEF73B
:104C500085FA00BFD7E702F08FFF7B49087008464E
:104C6000007800EB4000714951F820007449086059
:104C70000846006871490968884205D100BF20468E
:104C8000FEF76CFA00BFBEE76D480068D0F89000F0
:104C9000401C6B490968C1F890007D480068401CC1
:104CA0007B4908604FF080507A49086000BF204679
:104CB000FEF754FA00BF00BFA5E710B500245C481A
:104CC0000078002800DD10BD5B480078002800DD7A
:104CD000F9E700BFFEF73EFA044600BF02F04CFFC2
:104CE000594908700846007800EB40004F4951F8D8
:104CF0002000534908600846006850490968884206
:104D000005D100BF2046FEF729FA00BFDBE74C487B
:104D10000068D0F89000401C49490968C1F890002B
:104D20005B480068401C5A4908604FF08050594960
:104D3000086000BF2046FEF711FA00BF00BFC2E7BF
:104D400010B53D480078012803D1FEF787F84049A7
:104D5000086010BD70B5044600253548007800286D
:104D600003DD46F66250208070BD3248007801288D
:104D700003D045F689602080F6E72F480078FA28AE
:104D800003DB45F209202080EEE700BF00BFFEF7FD
:104D9000E1F9054600BF00BF27480078401C2649BE
:104DA0000870FFF7CDFF00BF00BF2846FEF7D6F919
:104DB00000BF00BF0020208000BFD5E710B51E480F
:104DC000007880B9FEF74AF821490968441A214859
:104DD0000068A04201D21F4804601F480068A0423A
:104DE00001D21D48046010BD70B50446002510486E
:104DF0000078002850DD46F66550208070BD000028
:104E00001C01002080010020A4810108A08101086C
:104E10009C81010875432F4F532D4949492049640E
:104E20006C65205461736B0010380020A439002099
:104E3000200100202101002068010020C001002085
:104E4000C40100204E0100204F010020500100202D
:104E50005C0100206001002064010020700100203E
:104E6000FC8101086C010020CC810108C881010887
:104E70000001002004010020080100200C01002096
:104E80001001002014010020180100209E010020C4
:104E90009401002004ED00E0F9480078012803D0D7
:104EA00045F68960208070BDF648007818B946F64E
:104EB00064502080F7E700BF00BFFEF74BF90546BE
:104EC00000BF00BFEF480078401EEE49087008465A
:104ED000007800280ADD00BF00BF2846FEF73EF933
:104EE00000BF00BF46F663502080DCE7FFF766FF97
:104EF00000BF00BF2846FEF731F900BF00BFFFF733
:104F0000DCFE0020208000BFCDE72DE9F041054602
:104F10000C461646002700BF00BFFEF71BF90746E8
:104F200000BF00BF012D03D00020D749087002E068
:104F30000120D549087014B1D448046006E0D44873
:104F400000680A21B0FBF1F0D049086000BF00BF43
:104F50003846FEF703F900BF00BF00203080BDE8EF
:104F6000F08110B501460C8924B1012C03D0022C2C
:104F70000CD101E000BF14E008684A680261002417
:104F8000C4601461D0600A6048600AE008684A683A
:104F9000C36800241C61C4600261D0600B6048607B
:104FA00000BF00BF10BD2DE9F04104460027B948FD
:104FB0000078002804DD48F2D1402080BDE8F0816F
:104FC000B0480078002803DD46F663502080F5E7FE
:104FD000AD480078012803D046F67B102080EDE72D
:104FE00000BF00BFFEF7B6F8074600BF00BFAA48E3
:104FF000007800EB4000A94901EB800630890228C7
:105000000ADA00BF00BF3846FEF7A8F800BF00BFAD
:1050100046F67A102080D1E73046FFF7A2FF3568C8
:10502000686D18B999480068A86501E0686DA865C1
:1050300000BF00BF3846FEF791F800BF00BFFFF782
:105040003CFE0020208000BFB8E710B504468C4825
:105050000078E8B902F090FD9149087008460078A0
:105060008D4908708E48007800EB40008B4951F85C
:1050700020008C490860084600688B4908600120C0
:105080007F49087011F05CFC43F69920208002E013
:1050900045F68A60208010BD01460020088047F256
:1050A0005C60704730B548B14568C1F8C05000F148
:1050B0000804226893681D6AC56113E091F83450B2
:1050C000022D02D0072D08D103E078A5C1F8C05009
:1050D00007E078A5C1F8C05003E079A5C1F8C05039
:1050E00000BF00BF30BDF0B58E6896F83750078915
:1050F0003FB90127078100274F600F6001604160C1
:1051000023E007897F1C0781026806E0946894F811
:105110003770AF4200DD02E05268002AF6D100BFCE
:1051200032B900274F6043680B60596041600CE062
:1051300017682FB9116000270F604A60016004E012
:1051400013680B604A6059601160F0BD10B5C287EA
:10515000016300230AE000244C600C600C614C6188
:105160000C83CC61886020315C1CA3B29342F2DBDB
:1051700010BD2DE9F041054695F8370000EB4000E1
:10518000464901EB80042F69EE6887B946B90020D3
:1051900020812060606095F8370002F00FFD0EE07E
:1051A0002089401E208100203061266007E0208990
:1051B000401E2081FE600EB9676000E0376100206C
:1051C0002861E860BDE8F08138B504460D4685B138
:1051D0006B4602222946204605F0ECFFBDF8000090
:1051E00018B9032084F8360006E0022084F836005F
:1051F00002E0022084F836002046FFF7BAFF38BDEF
:105200002DE9F04105460C4616461F462648006823
:1052100080F8346000202449096881F83500394657
:1052200021480068FFF7D0FF6CB104F10808EC607A
:10523000012229461C480068FFF788FF294640469E
:10524000FFF751FF06E0002017490968C887164993
:1052500009680863144801682046FFF723FFBDE88A
:10526000F08110B50489012C03D10024046044604E
:1052700033E00C6834BB4A680024146002602CE000
:105280002101002068010020700100206C01002035
:10529000FC810108200100204E010020A4390020DB
:1052A0004F010020C4010020C00100205461736B35
:1052B000205100005461736B2053656D00000000A5
:1052C000200000004C6824B90B6800245C60436037
:1052D00003E00B684A685A6013600489641E048105
:1052E00000244C600C6010BD2DE9F0410446256B94
:1052F000E68F0AE0D5F80C8008F108072946384601
:10530000FFF7AFFF2035701E86B2002EF2DC0020C2
:10531000E0872063BDE8F08130B50346086BCC8F91
:1053200008E0C5689D4202D10361C26104E02030FB
:10533000651EACB2002CF4DC00BF30BD10B590F897
:10534000373003EB4303F74C04EB83010B893BB984
:1053500001230B810023C36003610860486009E0FA
:105360000B895B1C0B810B68C360002303610A6817
:105370001061086010BD10B590F8373003EB43039F
:10538000E84C04EB83010B893BB901230B8100231B
:10539000C36003610860486008E00B895B1C0B81F7
:1053A0000023C3604A680261D060486010BD10B538
:1053B000044694F8370002F0F1FB94F83700DA491C
:1053C0000978884203D12046FFF7D5FF02E0204646
:1053D000FFF7B4FF10BD10B50446204605F07AFD76
:1053E00094F8360000F0040010B92046FFF7DFFF04
:1053F00010BD70B505460C46164694F836000828D0
:1054000047D2DFE800F0040508090607272800BF97
:1054100000BF00BF3EE000BF94F83400032804D171
:10542000324621462846FFF777FF0020E065A4F8C2
:105430006000266415B12046FFF756FF2046FFF7AF
:10544000CAFF00203434A07001206070002004F8EE
:1054500034091FE000BF94F83400032804D1324619
:1054600021462846FFF758FF0020E065A4F86000B9
:10547000266415B12046FFF737FF204605F02AFDC8
:1054800004203434A07001206070002004F8340936
:1054900000E000BF00BF70BD30B5AFF2DC15C1F851
:1054A000C05000F1080422681AB193681D6AC561F2
:1054B00002E0AFF2F415C56130BD2DE9F0430446BA
:1054C0000F4684F83770256BB4F83E8013E0D5F8AA
:1054D0000C9009F108063089012807D92946304681
:1054E000FFF7BFFE29463046FFF7FDFD2035A8F146
:1054F00001001FFA80F8B8F1000FE8D1BDE8F08391
:105500000021016041600181704703895B1C0381B8
:1055100003684B6000230B60026802B111600160F8
:105520000389012B00D14160704730B50346086BF9
:10553000CC8F08E0C5689D4202D10361C26104E0DE
:105540002030651EACB2002CF4DC00BF30BD70B55D
:1055500006460C46154694F83600082845D2DFE882
:1055600000F0040508090607262700BF00BF00BF9A
:105570003CE000BF94F83400032804D12A462146B9
:105580003046FFF7D2FF0020E065A4F860002564F4
:105590002046FFF7A9FE2046FFF71DFF0020343408
:1055A000A07002206070002004F834091EE000BFE3
:1055B00094F83400032804D12A4621463046FFF7E8
:1055C000B4FF0020E065A4F860002564204605F0E3
:1055D00081FC2046FFF788FE04203434A0700220AE
:1055E0006070002004F8340900E000BF00BF70BD07
:1055F000F0B50446059E086BCD8F0AE0C768A74248
:1056000004D1046142610383C66104E020306F1E4F
:10561000BDB2002DF2DC00BFF0BD2DE9F843064617
:105620000C4617469846089D94F83600082850D234
:10563000DFE800F00405080906072B2C00BF00BFB7
:1056400000BF47E000BF94F83400032807D1434669
:105650003A46214630460095FFF7CAFF03E0E7656A
:10566000A4F86080256436B12046FFF73DFE214650
:105670003046FFF711FF2046FFF7ADFE002034341F
:10568000A070607004F8340924E000BF94F834007E
:10569000032807D143463A46214630460095FFF796
:1056A000A7FF03E0E765A4F860802564204605F0C5
:1056B00011FC36B12046FFF717FE21463046FFF7B2
:1056C000EBFE04203434A0700020607004F834092C
:1056D00000E000BF00BFBDE8F88310B5002400BFA4
:1056E000FDF738FD044600BF00201049087010483F
:1056F0001049086008460068D0F89000401C09680E
:10570000C1F890000C480068401C0B4908604FF03D
:1057100080500A49086000BF2046FDF71FFD00BF0A
:1057200010BD0000A43900204E0100204F010020D0
:10573000D4380020C40100209401002004ED00E0D2
:1057400070B5054600262E480078012800D070BDAF
:1057500000BF00BFFDF7FEFC064600BF00BF2C687F
:105760003CB900BF00BF3046FDF7F8FC00BF00BFEA
:10577000EDE72448844207D100BF00BF3046FDF763
:10578000EDFC00BF00BFE2E7A06D10B1A06D401EB0
:10579000A065A06D38B100BF00BF3046FDF7DEFC4C
:1057A00000BF00BFD3E72889022807DA00BF00BF87
:1057B0003046FDF7D3FC00BF00BFC8E712480078B1
:1057C000002807DD00BF00BF3046FDF7C7FC00BF63
:1057D00000BFBCE72846FFF7C4FB2C68606D18B912
:1057E0000A480068A06501E0606DA06500BF00BFC9
:1057F0003046FDF7B3FC00BF00BF00BFA7E70000C5
:105800007001002010380020680100206C01002089
:105810002448254825482648264827482748284818
:105820002848294829482A482A482B482B482C48E8
:105830002C482D482D482E482E482F482F483048B8
:105840003048314831483248324833483348344888
:105850003448354835483648364837483748384858
:105860003848394839483A483A483B483B483C4828
:105870003C483D483D483E483E483F483F484048F8
:1058800040484148414842484248434843484448C8
:10589000444845484548464846484748474800BF69
:1058A0007047000040820108A88301084282010875
:1058B0004382010844820108488201084C820108A1
:1058C0004982010874820108758201087682010804
:1058D000788201087A8201087C8201087E820108B0
:1058E00080820108A0820108A2820108A482010826
:1058F000A6820108A8820108AA820108AC820108D8
:10590000D8820108D9820108DA820108DC82010804
:10591000DE820108DF820108E0820108E2820108DC
:10592000E4820108E6820108E8820108EA820108AF
:10593000EC8201081C8301081D8301081E830108F5
:105940001F830108208301082283010824830108A2
:105950004C8301084D8301084E8301084F830108E1
:1059600050830108528301085483010858830108B9
:10597000598301085A8301085B8301085C8301088D
:105980005D8301085E8301085F830108608301086D
:105990006283010863830108648301086683010848
:1059A00068830108698301086C830108A0830108EA
:1059B000A1830108A2830108A4830108A68301082A
:1059C000F7A1C16100214161F649096811B90021BF
:1059D000816105E0F34909688161F249096848611C
:1059E000F049086070472DE9F04104460E4617461D
:1059F0001D464FF00008EC480078002804DD42F610
:105A0000E1602880BDE8F0811CB945F6C3502880CC
:105A1000F8E700BF00BF00BFFDF79CFB804600BF5A
:105A200000BFE2480078401CE049087000BF00BF9A
:105A30004046FDF793FB00BF00BF00BFDC4820607D
:105A4000666027620020606204F10800FFF758FDDD
:105A50002046FFF7B5FFD7480088401CD54908808D
:105A600000BF00BF00BFFDF775FB804600BF00BF51
:105A7000CE480078401ECD49087000BF00BF4046A8
:105A8000FDF76CFB00BF00BF00BF0020288000BFF7
:105A9000B8E770B50446C8482060C8A06060002020
:105AA000206204F108052846FFF72AFD70BD42690F
:105AB00081693AB9BB4B196009B100234B610023DE
:105AC000836109E019B900239361436104E09161A6
:105AD0004A6100238361436170472DE9FC5F0546FD
